:020000040800F2
:1000000050080020C10100081106000887040008FC
:100010000D060008AD02000857110008000000009E
:10002000000000000000000000000000F90E0008C1
:10003000B102000800000000D70E00080D100008F3
:10004000DB010008DB010008DB010008DB01000820
:10005000DB010008DB010008DB010008DB01000810
:10006000DB010008C902000805030008DB010008E5
:10007000DB010008DB010008DB010008DB010008F0
:10008000DB010008DB010008DB010008DB010008E0
:10009000DB010008DB010008DB010008DB010008D0
:1000A000DB010008DB010008DB010008DB010008C0
:1000B000DB010008DB010008DB010008DB010008B0
:1000C000DB010008DB010008DB010008DB010008A0
:1000D000DB01000871100008DB010008DB010008EB
:1000E000DB010008DB010008DB01000800F002F87A
:1000F00000F03CF80AA090E8000C82448344AAF186
:100100000107DA4501D100F031F8AFF2090EBAE883
:100110000F0013F0010F18BFFB1A43F0010318473B
:10012000D8230000F8230000103A24BF78C878C113
:10013000FAD8520724BF30C830C144BF04680C60ED
:10014000704700000023002400250026103A28BF35
:1001500078C1FBD8520728BF30C148BF0B60704739
:100160001FB500F064F81FBD10B510BD00F06CF8AD
:100170001146FFF7F5FF01F03BF800F08AF803B4F1
:10018000FFF7F2FF03BC00F0E8FF00000B49D1F8D5
:1001900000C04A685CF8043B1068184442F8040B3D
:1001A0008C4528BFA1F1DC0C8A4228BFA1F1DC02FA
:1001B000C1F800C04A6020F000407047E401002010
:1001C0000948804709480047FEE7FEE7FEE7FEE7EB
:1001D000FEE7FEE7FEE7FEE7FEE7FEE70448054927
:1001E000054A064B7047000011100008ED0000089A
:1001F000500200205008002050040020500400202D
:10020000704700000B4910B5A1F17C020A4CC2E90D
:100210003712372106E000EB104342F82130074B3C
:1002200000FB03400B1EA1F10101F4DC10BD012015
:10023000E8E7000084010020E119D666CD0D010039
:100240007047704770477047754600F02BF8AE4610
:1002500005006946534620F00700854618B020B5D2
:10026000FFF7BCFFBDE820404FF000064FF000074D
:100270004FF000084FF0000B21F00701AC46ACE84E
:10028000C009ACE8C009ACE8C009ACE8C0098D46BB
:10029000704710B50446AFF300802046BDE810401B
:1002A000FFF76DBF00487047EC01002000BFFEE77C
:1002B000704706E041F6650100E0491E0029FCD1C7
:1002C000401E0028F6D1704710B50A2000F06AFFE2
:1002D00008210A4800F0C5F870B90A2000F062FF52
:1002E0000821064800F0BDF830B92021044800F08C
:1002F000C1F8082000F024F810BD000000180140EB
:10030000000C014010B50A2000F04CFF10210A48F3
:1003100000F0A7F870B90A2000F044FF1021064849
:1003200000F09FF830B92021044800F0A5F8102013
:1003300000F006F810BD000000180140000C01405C
:100340000149086070470000140401402DE9F041A4
:10035000024600250026002000230024002791F8F3
:1003600003C00CF00F0591F803C00CF0100CBCF1A9
:10037000000F03D091F802C04CEA050591F800C0C7
:10038000BCF1000F31D0146800202BE04FF0010CBD
:100390000CFA00F3B1F800C00CEA03069E4220D12B
:1003A00083004FF00F0C0CFA03F7BC4305FA03FC73
:1003B0004CEA040491F803C0BCF1280F06D14FF0B9
:1003C000010C0CFA00FCC2F814C00AE091F803C05A
:1003D000BCF1480F05D14FF0010C0CFA00FCC2F83B
:1003E00010C0401C0828D1D31460B1F800C0BCF183
:1003F000FF0F34DD546800202EE000F1080C4FF0B0
:10040000010808FA0CF3B1F800C00CEA03069E429A
:1004100021D183004FF00F0C0CFA03F7BC4305FA0F
:1004200003FC4CEA040491F803C0BCF1280F05D189
:1004300000F1080C08FA0CF8C2F8148091F803C017
:10044000BCF1480F07D100F1080C4FF0010808FA81
:100450000CF8C2F81080401C0828CED35460BDE8C8
:10046000F0810246002093680B400BB1012000E0B0
:100470000020704741617047016170470AB1016116
:1004800000E04161704700BFFEE7000010B50122A7
:1004900020210948FFF7F2FF012240210648FFF71B
:1004A000EDFF002240210448FFF7E8FF0022202151
:1004B0000148FFF7E3FF10BD000C014010B5012219
:1004C00020210748FFF7DAFF002240210448FFF708
:1004D000D5FF012240210248FFF7D0FF10BD0000E8
:1004E000000C014010B5012220210448FFF7C6FF8F
:1004F000002220210148FFF7C1FF10BD000C014080
:100500002DE9F04105462C46002220211348FFF733
:10051000B5FF00261DE0274607F08007802F05D194
:10052000012240210D48FFF7A9FF04E000224021ED
:100530000A48FFF7A3FF6006040E012220210748A6
:10054000FFF79CFF002220210448FFF797FF701C53
:10055000C6B2082EDFDBBDE8F0810000000C0140D0
:1005600010B50446FFF792FF7820FFF7C9FFFFF7A9
:10057000B9FF0020FFF7C4FFFFF7B4FF2046FFF7E5
:10058000BFFFFFF7AFFFFFF799FF10BD10B504469F
:10059000FFF77CFF7820FFF7B3FFFFF7A3FF4020B2
:1005A000FFF7AEFFFFF79EFF2046FFF7A9FFFFF71B
:1005B00099FFFFF783FF10BD08B50121082000F067
:1005C0008BFC4FF48450ADF8000028208DF8030018
:1005D00069460248FFF7BAFE08BD0000000C014062
:1005E00010B54FF480510848FFF73BFF012800D1B8
:1005F00010BD80210448FFF734FF012801D10220FB
:10060000F6E70020F4E70000000C014000BFFEE721
:100610007047000002490143024A11607047000020
:100620000000FA050CED00E070B5002418E004F1BC
:10063000B000002100F043FC0021084600F03FFC20
:100640000021102000F03BFC002505E001210020E6
:1006500000F035FC681CC5B2802DF7DB601CC4B20D
:10066000082CE4DB70BD2DE9F0410546002700248D
:1006700020E02146002000F05BFBFFF707FF782019
:10068000FFF73EFFFFF72EFF4020FFF739FFFFF790
:1006900029FF002608E039467F1C685CFFF730FF21
:1006A000FFF720FF701CC6B2802EF4DBFFF706FFB9
:1006B000601CC4B2082CDCDBBDE8F0812DE9F84FEA
:1006C00004468A464FF005084FF0000B4FF0000932
:1006D0000026BAF1010F0AD180203E490860424647
:1006E0000621002000F046FE8020BDE8F88F14B9F6
:1006F0004FF008090AE0012C02D14FF0100905E083
:10070000022C01D0032C01D14FF0180900254CE038
:1007100030480068002809DA2E480068C0F1000B54
:10072000A81DC1B2002000F003FB05E0AA1DD1B254
:10073000284A107800F0FCFAFFF7A8FE7820FFF7AF
:10074000DFFEFFF7CFFE4020FFF7DAFEFFF7CAFE1D
:100750000BF0FF0722E01F48006838447F2800DDC7
:100760001EE005FB09761CB91B48805D00900EE079
:10077000012C03D11948805D009008E0022C03D1C0
:100780001748805D009002E01648805D0090009858
:10079000FFF7B6FEFFF7A6FE781CC7B24F45DADBBF
:1007A00000BFFFF78BFE681CC5B2022DB0DB094904
:1007B000096801EB09004246062100F0DBFD05480F
:1007C0000068A0EB08000349086008460068404440
:1007D0008BE70000100000201F2000082F200008D9
:1007E0004F2000087F2000082DE9F0410325002755
:1007F00018262C4800683044694288420BDC80206F
:1008000028490860FFF7C2FC032190FBF1F201FBCD
:100810001200254908702348006800280ADA214898
:100820000068474220480078401CC1B2002000F018
:100830007FFA07E01C4A1278521CD1B2194A10788C
:1008400000F076FAFFF722FE7820FFF759FEFFF757
:1008500049FE4020FFF754FEFFF744FE3C4613E0FC
:100860001048006820447F2800DD10E0B44203DA1D
:100870000E4810F8048001E04FF000084046FFF7F2
:100880003FFEFFF72FFE641C7019A042E8DC00BF9A
:10089000FFF714FE03480068401B02490860BDE8EA
:1008A000F08100000400002008000020471E00081E
:1008B00010B50248FFF7D7FE10BD0000F720000872
:1008C0002DE9F04100271D480078401C1B490870A5
:1008D000087800EBD0714910A0EB4101174A117064
:1008E000002427E0A01DC1B2102000F021FAFFF77C
:1008F000CDFD7820FFF704FEFFF7F4FD4020FFF761
:10090000FFFDFFF7EFFD00250EE005EB04170C4897
:100910000A49097800EB4110C65D3046FFF7F0FD4B
:10092000FFF7E0FD681CC5B2102DEEDBFFF7C6FD3A
:10093000601CC4B2022CD5DBBDE8F08109000020A8
:100940005F1E00082DE9FE4307465EA207CA8DE838
:1009500007004FF000090026012F0AD100205C4952
:1009600008605C49087008205B4908700020BDE8F9
:10097000FE835848007898B9574909781DF8010056
:100980005349096808445249086053480078401E9A
:100990005149087008460078002801DA00200870E4
:1009A0004C480078012813D14B4909781DF8010003
:1009B00047490968081A4649086047480078401CBA
:1009C0004549087008460078082801D908200870B1
:1009D0003F4800681F2805DB01203E4908701F20A2
:1009E0003B4908603A480068002804DC0020394987
:1009F00008703749086036480068072801DC00267F
:100A000012E0334800680F2801DC01260CE0304872
:100A10000068172801DC022606E02D4800681F2820
:100A200001DC032600E00426002432E0C6F10500C4
:100A30002044C1B2102000F07BF9FFF727FD782099
:100A4000FFF75EFDFFF74EFD4020FFF759FDFFF772
:100A500049FD002517E005EB04191D490868C11779
:100A600000EB5171C910A0EBC10101EB41011B4A20
:100A700002EB011111F809804046FFF741FDFFF735
:100A800031FD681CC5B2102DE5DBFFF717FD601CBA
:100A9000C4B2032CCADB0F48007828B9C6F108019C
:100AA0001022104600F066FC0A480078012805D1A3
:100AB000C6F104011022104600F05CFC04480068F6
:100AC00055E70000010103030404050607000000C8
:100AD000180000201C000020140000209F1E0008A9
:100AE0002DE9F041052540F255260721002000F0B0
:100AF0001FF9FFF7CBFC7820FFF702FDFFF7F2FCB0
:100B00004020FFF7FDFCFFF7EDFC00240FE00D484F
:100B100000682044B0FBF6F106FB11000A490F5CA7
:100B20003846FFF7EDFCFFF7DDFC601CC4B2802CFB
:100B3000EDDBFFF7C3FC0348006828440149086067
:100B4000BDE8F08100000020F21B00082DE9F04113
:100B50000027022422E02146342000F0E9F8FFF7C4
:100B600095FC7820FFF7CCFCFFF7BCFC4020FFF79A
:100B7000C7FCFFF7B7FC00250AE038467F1C0F4989
:100B80000E5C3046FFF7BCFCFFF7ACFC681CC5B23E
:100B9000182DF2DBFFF792FC601CC4B2052CDADBE7
:100BA000102307A203210A2000F06CF9102306A2EB
:100BB0000321562000F066F9BDE8F081AF2000085F
:100BC00047414D45000000004F56455200000000CF
:100BD00070B50646002418E004F1B000002100F0D2
:100BE0006EF90021084600F06AF90021102000F09B
:100BF00066F9002505E00121304600F060F9681C27
:100C0000C5B2802DF7DB601CC4B2082CE4DB70BDDC
:100C100008B50121182000F05FF96020ADF8000050
:100C200010208DF8030003208DF8020069463F482C
:100C3000FFF78CFB60213D48FFF71EFC4FF4FA7074
:100C400000F0B0FA0021AE2000F039F9002108468A
:100C500000F035F90021102000F031F9002140208A
:100C600000F02DF90021B02000F029F900218120A9
:100C700000F025F90021FF2000F021F90021A1203A
:100C800000F01DF90021A62000F019F90021A8208C
:100C900000F015F900213F2000F011F90021C820D3
:100CA00000F00DF90021D32000F009F900210846D9
:100CB00000F005F90021D52000F001F90021802085
:100CC00000F0FDF80021D82000F0F9F800210520FF
:100CD00000F0F5F80021D92000F0F1F80021F12012
:100CE00000F0EDF80021DA2000F0E9F800211220F0
:100CF00000F0E5F80021DB2000F0E1F800213020D1
:100D000000F0DDF800218D2000F0D9F8002114203A
:100D100000F0D5F80021AF2000F0D1F81420FFF743
:100D2000C8FA0020FFF754FF08BD0000000C014086
:100D300070B504460D4605F1B000002100F0BFF883
:100D4000102141EA1410002100F0B9F804F00F005E
:100D5000002100F0B4F870BD2DE9F04707460E46BB
:100D60009046994600250024A8F12000C5B27F2FA7
:100D700002DD0027B01CC6B2B9F1100F24D13146F4
:100D80003846FFF7D5FF002408E004EB0511194AA7
:100D9000505C012100F093F8601CC4B2082CF4DB15
:100DA000701CC1B23846FFF7C3FF002409E004EB12
:100DB000051108310F4A505C012100F080F8601CD9
:100DC000C4B2082CF3DB12E031463846FFF7B0FF1F
:100DD00000240AE005EB4501074A02EB4101085DEA
:100DE000012100F06CF8601CC4B2062CF2DBBDE8F7
:100DF000F087000002160008DA1300082DE9FF5FF3
:100E0000074691461E460E9D4FF0000A002435E02D
:100E1000301B401EC1B20A2000F0D4FAB9FBF0F03A
:100E20000A21B0FBF1F201FB1208BAF1000F14D154
:100E3000701EA04211DDB8F1000F0CD1AB4605EBDE
:100E4000DB71491001FB0471C8B22B4630220199B5
:100E5000FFF782FF10E04FF0010AAB4605EBDB71B4
:100E6000491001FB0471C8B208F13001CAB22B4627
:100E70000199FFF771FF00BF601CC4B2B442C7DB29
:100E8000BDE8FF9F2DE9F04104460F461546984600
:100E900000260FE0AA5D434639462046FFF75CFF77
:100EA00004F10800C4B2782C02DD0024B81CC7B2DB
:100EB000701CC6B2A85D0028ECD1BDE8F08170B509
:100EC00004460D461DB1E0B2FFF760FB02E0E0B260
:100ED000FFF746FB70BD704729B1064A926902438D
:100EE000044B9A6104E0034A92698243014B9A6180
:100EF0007047000000100240704710B500F002F883
:100F000010BD00000CB5002001900090334800682F
:100F100040F480303149086000BF3048006800F478
:100F2000003000900198401C0190009818B9019879
:100F3000B0F5A06FF1D12948006800F4003010B17D
:100F40000120009001E0002000900098012843D18A
:100F50002348006840F010002149086008460068F6
:100F600020F0030008600846006840F002000860B6
:100F70001A48406819494860084640684860084671
:100F8000406840F4806048600846406820F47C1067
:100F900048600846406840F4E81048600846006829
:100FA00040F08070086000BF0C48006800F00070DE
:100FB0000028F9D00948406820F00300074948603C
:100FC0000846406840F00200486000BF034840689F
:100FD00000F00C000828F9D10CBD00000010024000
:100FE00000200240042808D14FF0E021096941F0B7
:100FF00004014FF0E022116107E04FF0E0210969A0
:1010000021F004014FF0E0221161704770470000A9
:1010100010B51348006840F0010011490860084607
:101020004068104908400E494860084600680E496B
:1010300008400B4908600846006820F480200860DA
:101040000846406820F4FE0048604FF41F008860A6
:10105000FFF753FF4FF000600449086010BD000027
:10106000001002400000FFF8FFFFF6FE08ED00E070
:1010700010B540F225511D4800F03EF810B31B4852
:1010800000F064F8C4B21A48008800F40040C8B9FF
:101090001748008800F4804060B10A2C03D000207B
:1010A0001349088020E01248008840F400401049AD
:1010B000088019E00D2C06D10D48008840F48040CE
:1010C0000B49088010E00A480088C0F30D00094968
:1010D0000C5407480088401C0549088008460088D1
:1010E000C72801DD0020088010BD00000038014045
:1010F000280000204000002070B502460024002394
:101100000025002040F66A16B14200D100BFC1F3AD
:10111000421501F01F03012606FA03F3012D02D147
:101120009689334006E0022D02D1168A334001E051
:10113000968A33400C12012606FA04F416883440CD
:1011400013B10CB1012000E0002070BD0146888879
:10115000C0F30800704700BFFEE700BF7047000003
:1011600010B56FF00400FFF73DFF0A4800680A4918
:10117000B0FBF1F0094908700846007800EB400127
:10118000C1EBC0104FF6FF7101EAC00004490880AE
:1011900010BD00002C00002000127A001E0000206C
:1011A000200000200146114A12884A434FF0E023F4
:1011B0005A6100229A611A46126942F001021A61CC
:1011C00000BF4FF0E022106900F001021AB100F4F4
:1011D0008032002AF5D04FF0E022126922F001029D
:1011E0004FF0E0231A6100229A617047200000202E
:1011F0001FB54FF0000A002608270024A346A0468A
:1012000080251E200390002002900190FFF7A8FF88
:101210004FF4A060FFF7FEF9FFF7FAFCFFF7CCF9F7
:10122000042351A200210846FFF72CFEFFF740FBE4
:1012300000BFFFF7D5F90228FBD16420FFF7B2FF0A
:10124000FFF7F2F98FE0029801281BD1FFF77EFC2F
:10125000FFF7C6F900F0FF0ABAF1020F11D15C45A1
:1012600000D9A3460024002002908046012001906E
:101270000198FFF767FB30460199FFF71FFAFFF768
:10128000D3F970E0641CB8F1000F03DCFFF7A8F994
:1012900000F0FF0AFFF724FCFFF7A6FAB8F1000FF1
:1012A00002DCBAF1010F04D10198FFF74BFB804635
:1012B00001E0FFF705FB30460199FFF7FFF905460E
:1012C0000EB9082704E0012E01D1102700E01827ED
:1012D000E81900280DDAFEF759FF8146C01709EB1F
:1012E00090708010A9EB8000C6B201213046FFF754
:1012F000E5F9B8F1100F0BDA102D01DB202D05DD1B
:10130000E819102804DBE819202801DC01200290EC
:101310000C2317A200212320FFF7B4FD0C20052386
:101320005A46002100903A20FFF768FD0C20052363
:101330002246002100906220FFF760FD002001900E
:101340001420B4FBF0F0C0B2039003981D2801DD17
:101350001D2003900399C1F11E0188B2FFF722FFFF
:101360004FF0000A00BF6EE7546573740000000080
:1013700048493A002DE9F04104460E461746F1B2BD
:10138000E0B2FFF7D5FCFFF781F87820FFF7B8F857
:10139000FFF7A8F84020FFF7B3F8FFF7A3F8002500
:1013A00009E06019802800D907E00020FFF7A8F8BD
:1013B000FFF798F86D1CBD42F3D300BFFFF77EF82E
:1013C000BDE8F08110B50246012000E050430B1E3D
:1013D000A1F10104E1B2F9D110BD0000000000004C
:1013E0000000002F000000000700070000147F1419
:1013F0007F1400242A7F2A12006264081323003617
:101400004955225000000503000000001C22410045
:10141000000041221C000014083E08140008083E89
:101420000808000000A06000000808080808000084
:1014300060600000002010080402003E5149453E53
:101440000000427F40000042615149460021414571
:101450004B31001814127F10002745454539003CD8
:101460004A494930000171090503003649494936A6
:1014700000064949291E0000363600000000563695
:101480000000000814224100001414141414000079
:101490004122140800020151090600324959513E07
:1014A000007C1211127C007F49494936003E4141BF
:1014B0004122007F4141221C007F49494941007F70
:1014C00009090901003E4149497A007F0808087F5F
:1014D0000000417F4100002040413F01007F08148F
:1014E0002241007F40404040007F020C027F007F8D
:1014F0000408107F003E4141413E007F0909090672
:10150000003E4151215E007F0919294600464949A4
:1015100049310001017F0101003F4040403F001F71
:101520002040201F003F4038403F006314081463F0
:1015300000070870080700615149454300007F41DA
:10154000410000552A552A55000041417F00000402
:10155000020102040040404040400000010204003B
:10156000002054545478007F4844443800384444A0
:10157000442000384444487F00385454541800082C
:101580007E0901020018A4A4A47C007F080404784A
:101590000000447D4000004080847D00007F1028D2
:1015A00044000000417F4000007C04180478007C67
:1015B0000804047800384444443800FC24242418E7
:1015C0000018242418FC007C080404080048545423
:1015D000542000043F444020003C4040207C001C3C
:1015E0002040201C003C4030403C0044281028444F
:1015F000001CA0A0A07C004464544C441414141497
:1016000014140000000000000000000000000000B2
:101610000000000000F8000000000000003330006F
:10162000000000100C06100C060000000000000076
:10163000000040C07840C0784000043F04043F04EC
:101640000400007088FC08300000001820FF211EF4
:101650000000F008F000E018000000211C031E212B
:101660001E0000F00888700000001E2123241927A6
:10167000211010160E000000000000000000000005
:101680000000000000E0180402000000000718201D
:10169000400000020418E00000000040201807008D
:1016A0000000404080F0804040000202010F010233
:1016B0000200000000F0000000000101011F010114
:1016C0000100000000000000000080B07000000079
:1016D0000000000000000000000000010101010105
:1016E0000101000000000000000000303000000098
:1016F000000000000000806018040060180601006F
:10170000000000E010080810E000000F102020107A
:101710000F00001010F8000000000020203F2020E3
:10172000000000700808088870000030282422217A
:101730003000003008888848300000182020201130
:101740000E000000C02010F8000000070424243F11
:10175000240000F8088888080800001921202011BA
:101760000E0000E0108888180000000F11202011E2
:101770000E0000380808C83808000000003F0000CC
:1017800000000070880808887000001C22212122B7
:101790001C0000E010080810E000000031222211B7
:1017A0000F00000000C0C00000000000003030004A
:1017B00000000000008000000000000080600000C9
:1017C0000000000080402010080000010204081002
:1017D0002000404040404040400004040404040411
:1017E00004000008102040800000002010080402BF
:1017F0000100007048080808F000000000303601C1
:101800000000C030C828E810E0000718272423147F
:101810000B000000C038E0000000203C230202273B
:10182000382008F8888888700000203F2020201188
:101830000E00C030080808083800071820202010C3
:10184000080008F808080810E000203F20202010B9
:101850000F0008F88888E8081000203F2020232087
:10186000180008F88888E8081000203F20000300CE
:101870000000C03008080838000007182020221E89
:10188000020008F808000008F808203F21010121A3
:101890003F20000808F8080800000020203F202012
:1018A000000000000808F8080800C08080807F0061
:1018B000000008F888C028180800203F20012638BA
:1018C000200008F8080000000000203F2020202011
:1018D000300008F8F800F8F80800203F003F003F0B
:1018E000200008F830C00008F808203F2000071842
:1018F0003F00E01008080810E0000F102020201022
:101900000F0008F808080808F000203F2101010135
:101910000000E01008080810E0000F1824243850D8
:101920004F0008F8888888887000203F2000030C4A
:101930003020007088080808380000382021212253
:101940001C00180808F8080818000000203F2000B4
:10195000000008F808000008F808001F20202020D8
:101960001F000878880000C83808000007380E01FA
:101970000000F80800F80008F800033C0700073CE6
:101980000300081868808068180820302C03032C96
:1019900030200838C800C83808000000203F200068
:1019A000000010080808C838080020382621202028
:1019B0001800000000FE020202000000007F40400C
:1019C0004000000C30C0000000000000000106389C
:1019D000C00000020202FE000000004040407F0004
:1019E00000000000040202020400000000000000E9
:1019F00000000000000000000000808080808080E7
:101A000080800002020400000000000000000000CE
:101A10000000000080808080000000192422222223
:101A20003F2008F8008080000000003F11202011B6
:101A30000E000000008080800000000E1120202099
:101A40001100000000808088F800000E1120201096
:101A50003F200000808080800000001F2222222280
:101A60001300008080F0888888180020203F202004
:101A700000000000808080808000006B949494932C
:101A8000600008F8008080800000203F21000020D6
:101A90003F2000809898000000000020203F202078
:101AA0000000000000809898000000C08080807FC7
:101AB000000008F8000080808000203F24022D30C4
:101AC0002000000808F8000000000020203F20202F
:101AD00000008080808080808000203F20003F20A8
:101AE000003F8080008080800000203F2100002097
:101AF0003F200000808080800000001F20202020E8
:101B00001F00808000808000000080FFA120201145
:101B10000E000000008080808000000E112020A0B8
:101B2000FF80808080008080800020203F21200076
:101B30000100000080808080800000332424242461
:101B40001900008080E0808000000000001F20203D
:101B500000008080000000808000001F20202010F6
:101B60003F20808080000080808000010E300806C9
:101B7000010080800080008080800F300C030C30DA
:101B80000F0000808000808080000020312E0E3108
:101B90002000808080000080808080818E70180608
:101BA000010000808080808080000021302C222174
:101BB000300000000000807C020200000000003FB6
:101BC000404000000000FF00000000000000FF0097
:101BD00000000002027C800000000040403F000046
:101BE00000000006010102020404000000000000E1
:101BF0000000C8C8C828282808C8C8080808080855
:101C000008080808080808480808C8C8C808383874
:101C10000808080808484808080808080828084864
:101C2000484808080828280808080808080808C8B4
:101C30000808080808080848080808080808383884
:101C40000808080808080808080808480828280894
:101C50004848080808080808080808080808280864
:101C60000808083838086808080808080828080814
:101C700008080808084808484808080808080848E4
:101C80004808080808080808680808080808080834
:101C900008080828080808080808C8C80809080823
:101CA0000808083838080828080908080808080833
:101CB0000828280808080908080808080808086803
:101CC0006808C9C8C8080808C808080808282908F2
:101CD0000808080808080808080848490808080803
:101CE0000808080808080868680808282808080874
:101CF0000808080868680808C8C808080808080824
:101D00000808282808280808080808282828080893
:101D10004808383808080808C80808080808C8C863
:101D2000C828282808C8C808080808080808080893
:101D3000080848480808C8C8C80838380808080803
:101D40000848480808080808282808484848080893
:101D50000828280808080808080808C80808080CFF
:101D600006024242060C08080808383808181810FD
:101D700010101010181808480828280848480808A3
:101D80000808080808080808082828080808083863
:101D900038686808080808080828080808080808B3
:101DA0000848084848080808080808484808080873
:101DB00008080868680808080808080808082828A3
:101DC0000808080808C8C8C8080808080808283803
:101DD00038080828080808080808080828282808D3
:101DE0000808080808080808080808686808C8C833
:101DF000C8080808C8080808082828080808080C9F
:101E000004060202060C4C480808080C04060202EC
:101E1000060C0C68680828282808080808080868BC
:101E200068680808C8C808080808080808082828B2
:101E300028280808080808282828080848283838C2
:101E400008080808C8080880C0E070B0B0B09888DA
:101E50008E8383838181938E8C888898B0F0C0E0D4
:101E60008000000080C0E0FEFFFDBFAF2F2F0E03FB
:101E7000070F1EFFBF1F1F3F2F070001000000E0DC
:101E80008000000080C0E0FEFFFDBFAF2F2F0E03DB
:101E9000070F1E3F7F5F3FFF8F070001000000001C
:101EA000000000000000000000000000000000E052
:101EB0008000000080C0C0FEFFFDBFAF2F2F0E03CB
:101EC000070F1FFFBF1F3FFF8F070001000000002B
:101ED000000000000000000080808080808000F012
:101EE000C0808080C0E0E0FFFFFE5FD717170701CA
:101EF00003070F7F5F0F1F7F4703000000000000F4
:101F00000000000000000080C040C0C0C0C080F8D9
:101F1000E0C0C0C0E0F0F0FFFFFF2F6B0B0B030031
:101F20000103073F2F070F3F2301000000000000BF
:101F300000000000000000C0E0A0E0E0E0E0C07CA5
:101F4000F0E0E0E0F0F8F8FFFFFF173505050100CD
:101F50000001031F1703071F11000000000000000D
:101F600000000000000000E0F0D0F0F0F0F0E03EF3
:101F700078F0F0F0F8FCFCFFFF7F0B1A0202000083
:101F80000000010F0B01030F08000000000000001B
:101F900000000000000000F0F8E8F8787878701F82
:101FA0003C78F8F8FCFEFEFF7F3F050D01010000C4
:101FB0000000000705000107040000000000008089
:101FC00000000000000000F8FCF4FCBCBCBC380FB2
:101FD0001E3C7CFCFE7FFFFF3F1F0206000000004E
:101FE000000000030200000302000000000000C027
:101FF00000000000008080FCFEFA7E5E5E5E1C0732
:102000000F1E3EFE7F3F7FFF1F0F010300000000F9
:10201000000000010100000101000000000000F0CC
:10202000F000FFFF00F0F0030786FFFF060301F05A
:10203000E000FFFE80FC00007CC0FEFF0080FC038F
:102040000706FFFF011090909000FFFF030301F0CF
:10205000E000FFFE80FC00FCFE00FFFF00F8F00047
:10206000FE80FEFFFE78FC131706FFFF0110101321
:102070003704FFFF080F17101001FFFF031311F0C3
:10208000E000FFFE00F000C000FFFE603C800000AA
:102090007CC0FEFF00F0F8434786FFFF26A3A02781
:1020A00004FFFF0008FF882F0000FFFF062321FC2C
:1020B000FFFFFFFFFF3F3F3F3F0F1F3FFFFFFF3F80
:1020C0003FFFFFFFFFFFFCFFFFFFFFFF00007E7EE3
:1020D0007E787C7E7F7F7F7E0000FFFFFFFFFF3FDB
:1020E000FFFFFFFFFFFCFCFCFCFCFCFCFCFCFCFC21
:1020F000FCFFFFFFFFFF3F0000000000000000E0CA
:10210000F0303030300000F0F0C0C0F0F00000F0EF
:10211000F0B0B070600000E0F03030F0E00000F0AF
:10212000F030F0F030F0E000E0E09090909090001F
:10213000000000000000000000000000000000009F
:10214000000000000000008080000000000000008F
:10215000000000000000000000000000000000007F
:10216000000000000000000000000000000000006F
:10217000000000000000000000000000000000F36C
:10218000F73636F6E600F0F707C1C13737F0C0077B
:10219000C7E0303737E0C0030706F6F7B3B0B0F753
:1021A000E700F7F70007F7F003E3F43434F4E40052
:1021B00000000000000000000000000000001010FF
:1021C0000C041414121111111011121212141C10FB
:1021D00000000000000000000000000000000000FF
:1021E00000000000000000000000000000000000EF
:1021F0000000000000000000000000000000000FD0
:102200000F0C0C0F07000F0F000F0F00000F0F0037
:1022100003070C0C0C07030000000F0F0101010E57
:102220000E00070F0C0C0707000F0F00000F0F0028
:10223000000000000000000000000000000000009E
:10224000000000000000000000000000000000008E
:1022500000000000000000000000000080C060A03E
:10226000A0A09088888C889090B0A0C080000000CA
:10227000000000000000000000000000000000005E
:10228000000000004040004040404040404040408E
:102290000000F0FCFC9C9CFCFCFCFCFCFCFCFCFC42
:1022A000FCF0F00000000000000000000000000052
:1022B000000000000000000000000000000000001E
:1022C000000000000000000080000000000000008E
:1022D00000000000000000000000000000000000FE
:1022E000000000000000008000000000000000006E
:1022F00000000000000000000000000000000000DE
:102300008000000800000808080808080808000005
:102310008080FFFFFFFFFFFF7F7F4F4F4F4F4F4FEB
:102320000F0F0F0000000000000000000000000080
:10233000000000000000000000000000000000009D
:1023400000008080000000FFFFFFFF000080800091
:1023500000000000FEFEFE0000F0E00000000000B3
:10236000F0F8F00000FFFFFFFF0000808080000019
:10237000000000000000000000000000000000005D
:10238000FFF8F8E0E0808080C0E0F8F8F8FEFEFE9C
:10239000FFFFFFFFFFFFFFFF1808383800000000B5
:1023A000000000000000000000000000000000002D
:1023B000000000000000000000000000000000001D
:1023C0000000FFFF010000FFFFFFFF0000FFFF0014
:1023D000FCFE0400FFFFFF0C0C8F8300F0F0008078
:1023E0009F3F7F7070FFFFFFFF000000FFFF0000B6
:1023F00000000000000000000000000000000000DD
:1024000003070F1F1F7F7FFFFFFFFFFFFFFFFFFF80
:10241000FFFFFF7F7F1F1707000000000000000084
:1024200000000000000000000000000000000000AC
:10243000000000000000000000000000000000009C
:1024400000000103070707FFFFFFFF030301000070
:1024500003070E0CFFFFFF00001F3F20FFFF201FA0
:102460000F00000000FFFFFFFF0303030100000057
:10247000000000000000008282820202222222224A
:10248000020202828200000001FF9F9F07070101F4
:102490000707FF8080000002020202C2020202025D
:1024A000028282828202023232322202020202005E
:1024B00000000000000000000000000000000242D8
:1024C000420202020202000F0F0F0F000101011170
:1024D000110101000F0F0F00013111000F0F000D4E
:1024E0000D011111101F1F1F1F10000D010101010F
:1024F00001010D0D0100000018250008000000205A
:102500004000000028010008582500084000002075
:1025100010080000440100080000000080000000D6
:1025200000000000800000008000000008000000A3
:10253000000000000000000000000000000000009B
:102540000000000000A24A0400000000000000009B
:0825500001020304060708095B
:04000005080000ED02
:00000001FF
